{
  "contractName": "MusicNFTUser",
  "abi": [
    {
      "anonymous": false,
      "inputs": [
        {
          "indexed": true,
          "internalType": "address",
          "name": "previousOwner",
          "type": "address"
        },
        {
          "indexed": true,
          "internalType": "address",
          "name": "newOwner",
          "type": "address"
        }
      ],
      "name": "OwnershipTransferred",
      "type": "event"
    },
    {
      "inputs": [
        {
          "internalType": "address",
          "name": "",
          "type": "address"
        },
        {
          "internalType": "uint256",
          "name": "",
          "type": "uint256"
        }
      ],
      "name": "myItems",
      "outputs": [
        {
          "internalType": "address",
          "name": "artistContract",
          "type": "address"
        },
        {
          "internalType": "uint256",
          "name": "tokenId",
          "type": "uint256"
        }
      ],
      "stateMutability": "view",
      "type": "function"
    },
    {
      "inputs": [],
      "name": "owner",
      "outputs": [
        {
          "internalType": "address",
          "name": "",
          "type": "address"
        }
      ],
      "stateMutability": "view",
      "type": "function"
    },
    {
      "inputs": [],
      "name": "renounceOwnership",
      "outputs": [],
      "stateMutability": "nonpayable",
      "type": "function"
    },
    {
      "inputs": [
        {
          "internalType": "address",
          "name": "newOwner",
          "type": "address"
        }
      ],
      "name": "transferOwnership",
      "outputs": [],
      "stateMutability": "nonpayable",
      "type": "function"
    },
    {
      "inputs": [
        {
          "internalType": "address",
          "name": "user",
          "type": "address"
        },
        {
          "internalType": "address",
          "name": "_artist",
          "type": "address"
        },
        {
          "internalType": "uint256",
          "name": "_tokenId",
          "type": "uint256"
        }
      ],
      "name": "addItem",
      "outputs": [],
      "stateMutability": "nonpayable",
      "type": "function"
    },
    {
      "inputs": [
        {
          "internalType": "address",
          "name": "user",
          "type": "address"
        },
        {
          "internalType": "address",
          "name": "_artist",
          "type": "address"
        },
        {
          "internalType": "uint256",
          "name": "_tokenId",
          "type": "uint256"
        }
      ],
      "name": "removeItem",
      "outputs": [],
      "stateMutability": "nonpayable",
      "type": "function"
    },
    {
      "inputs": [],
      "name": "getMyItems",
      "outputs": [
        {
          "components": [
            {
              "internalType": "uint256",
              "name": "tokenId",
              "type": "uint256"
            },
            {
              "internalType": "address payable",
              "name": "seller",
              "type": "address"
            },
            {
              "internalType": "uint256",
              "name": "price",
              "type": "uint256"
            },
            {
              "internalType": "address",
              "name": "artist",
              "type": "address"
            },
            {
              "internalType": "string",
              "name": "tokenURI",
              "type": "string"
            },
            {
              "internalType": "address",
              "name": "owner",
              "type": "address"
            }
          ],
          "internalType": "struct MusicNFTArtist.MarketItem[]",
          "name": "",
          "type": "tuple[]"
        }
      ],
      "stateMutability": "view",
      "type": "function"
    }
  ],
  "bytecode": "0x608060405234801561000f575f80fd5b5061002c61002161003160201b60201c565b61003860201b60201c565b6100f9565b5f33905090565b5f805f9054906101000a900473ffffffffffffffffffffffffffffffffffffffff169050815f806101000a81548173ffffffffffffffffffffffffffffffffffffffff021916908373ffffffffffffffffffffffffffffffffffffffff1602179055508173ffffffffffffffffffffffffffffffffffffffff168173ffffffffffffffffffffffffffffffffffffffff167f8be0079c531659141344cd1fd0a4f28419497f9722a3daafe3b4186f6b6457e060405160405180910390a35050565b611682806101065f395ff3fe608060405234801561000f575f80fd5b506004361061007b575f3560e01c8063be7dfa0411610059578063be7dfa04146100c3578063c5fb207d146100f4578063d900091214610112578063f2fde38b1461012e5761007b565b80636b19df491461007f578063715018a61461009b5780638da5cb5b146100a5575b5f80fd5b61009960048036038101906100949190610d7e565b61014a565b005b6100a36102a9565b005b6100ad610330565b6040516100ba9190610ddd565b60405180910390f35b6100dd60048036038101906100d89190610df6565b610357565b6040516100eb929190610e43565b60405180910390f35b6100fc6103b0565b6040516101099190611073565b60405180910390f35b61012c60048036038101906101279190610d7e565b610621565b005b61014860048036038101906101439190611093565b610aaf565b005b610152610ba5565b73ffffffffffffffffffffffffffffffffffffffff16610170610330565b73ffffffffffffffffffffffffffffffffffffffff16146101c6576040517f08c379a00000000000000000000000000000000000000000000000000000000081526004016101bd90611118565b60405180910390fd5b60015f8473ffffffffffffffffffffffffffffffffffffffff1673ffffffffffffffffffffffffffffffffffffffff1681526020019081526020015f2060405180604001604052808473ffffffffffffffffffffffffffffffffffffffff16815260200183815250908060018154018082558091505060019003905f5260205f2090600202015f909190919091505f820151815f015f6101000a81548173ffffffffffffffffffffffffffffffffffffffff021916908373ffffffffffffffffffffffffffffffffffffffff160217905550602082015181600101555050505050565b6102b1610ba5565b73ffffffffffffffffffffffffffffffffffffffff166102cf610330565b73ffffffffffffffffffffffffffffffffffffffff1614610325576040517f08c379a000000000000000000000000000000000000000000000000000000000815260040161031c90611118565b60405180910390fd5b61032e5f610bac565b565b5f805f9054906101000a900473ffffffffffffffffffffffffffffffffffffffff16905090565b6001602052815f5260405f208181548110610370575f80fd5b905f5260205f2090600202015f9150915050805f015f9054906101000a900473ffffffffffffffffffffffffffffffffffffffff16908060010154905082565b60605f60015f3373ffffffffffffffffffffffffffffffffffffffff1673ffffffffffffffffffffffffffffffffffffffff1681526020019081526020015f208054905067ffffffffffffffff81111561040d5761040c611136565b5b60405190808252806020026020018201604052801561044657816020015b610433610c6d565b81526020019060019003908161042b5790505b5090505f5b60015f3373ffffffffffffffffffffffffffffffffffffffff1673ffffffffffffffffffffffffffffffffffffffff1681526020019081526020015f20805490508110156106195760015f3373ffffffffffffffffffffffffffffffffffffffff1673ffffffffffffffffffffffffffffffffffffffff1681526020019081526020015f2081815481106104e2576104e1611163565b5b905f5260205f2090600202015f015f9054906101000a900473ffffffffffffffffffffffffffffffffffffffff1673ffffffffffffffffffffffffffffffffffffffff1663e4b50cb860015f3373ffffffffffffffffffffffffffffffffffffffff1673ffffffffffffffffffffffffffffffffffffffff1681526020019081526020015f20838154811061057a57610579611163565b5b905f5260205f209060020201600101546040518263ffffffff1660e01b81526004016105a69190611190565b5f60405180830381865afa1580156105c0573d5f803e3d5ffd5b505050506040513d5f823e3d601f19601f820116820180604052508101906105e891906113ad565b8282815181106105fb576105fa611163565b5b6020026020010181905250808061061190611421565b91505061044b565b508091505090565b610629610ba5565b73ffffffffffffffffffffffffffffffffffffffff16610647610330565b73ffffffffffffffffffffffffffffffffffffffff161461069d576040517f08c379a000000000000000000000000000000000000000000000000000000000815260040161069490611118565b60405180910390fd5b5f805f90505f5b60015f8773ffffffffffffffffffffffffffffffffffffffff1673ffffffffffffffffffffffffffffffffffffffff1681526020019081526020015f20805490508160ff161015610829578360015f8873ffffffffffffffffffffffffffffffffffffffff1673ffffffffffffffffffffffffffffffffffffffff1681526020019081526020015f208260ff168154811061074257610741611163565b5b905f5260205f2090600202016001015414801561080957508473ffffffffffffffffffffffffffffffffffffffff1660015f8873ffffffffffffffffffffffffffffffffffffffff1673ffffffffffffffffffffffffffffffffffffffff1681526020019081526020015f208260ff16815481106107c3576107c2611163565b5b905f5260205f2090600202015f015f9054906101000a900473ffffffffffffffffffffffffffffffffffffffff1673ffffffffffffffffffffffffffffffffffffffff16145b1561081657809250600191505b808061082190611474565b9150506106a4565b506001151581151514610871576040517f08c379a00000000000000000000000000000000000000000000000000000000081526004016108689061150c565b60405180910390fd5b5f8290505b6001805f8873ffffffffffffffffffffffffffffffffffffffff1673ffffffffffffffffffffffffffffffffffffffff1681526020019081526020015f20805490506108c2919061152a565b8160ff161015610a175760015f8773ffffffffffffffffffffffffffffffffffffffff1673ffffffffffffffffffffffffffffffffffffffff1681526020019081526020015f20600182610916919061155d565b60ff168154811061092a57610929611163565b5b905f5260205f20906002020160015f8873ffffffffffffffffffffffffffffffffffffffff1673ffffffffffffffffffffffffffffffffffffffff1681526020019081526020015f208260ff168154811061098857610987611163565b5b905f5260205f2090600202015f82015f9054906101000a900473ffffffffffffffffffffffffffffffffffffffff16815f015f6101000a81548173ffffffffffffffffffffffffffffffffffffffff021916908373ffffffffffffffffffffffffffffffffffffffff160217905550600182015481600101559050508080610a0f90611474565b915050610876565b5060015f8673ffffffffffffffffffffffffffffffffffffffff1673ffffffffffffffffffffffffffffffffffffffff1681526020019081526020015f20805480610a6557610a64611591565b5b600190038181905f5260205f2090600202015f8082015f6101000a81549073ffffffffffffffffffffffffffffffffffffffff0219169055600182015f9055505090555050505050565b610ab7610ba5565b73ffffffffffffffffffffffffffffffffffffffff16610ad5610330565b73ffffffffffffffffffffffffffffffffffffffff1614610b2b576040517f08c379a0000000000000000000000000000000000000000000000000000000008152600401610b2290611118565b60405180910390fd5b5f73ffffffffffffffffffffffffffffffffffffffff168173ffffffffffffffffffffffffffffffffffffffff1603610b99576040517f08c379a0000000000000000000000000000000000000000000000000000000008152600401610b909061162e565b60405180910390fd5b610ba281610bac565b50565b5f33905090565b5f805f9054906101000a900473ffffffffffffffffffffffffffffffffffffffff169050815f806101000a81548173ffffffffffffffffffffffffffffffffffffffff021916908373ffffffffffffffffffffffffffffffffffffffff1602179055508173ffffffffffffffffffffffffffffffffffffffff168173ffffffffffffffffffffffffffffffffffffffff167f8be0079c531659141344cd1fd0a4f28419497f9722a3daafe3b4186f6b6457e060405160405180910390a35050565b6040518060c001604052805f81526020015f73ffffffffffffffffffffffffffffffffffffffff1681526020015f81526020015f73ffffffffffffffffffffffffffffffffffffffff168152602001606081526020015f73ffffffffffffffffffffffffffffffffffffffff1681525090565b5f604051905090565b5f80fd5b5f80fd5b5f73ffffffffffffffffffffffffffffffffffffffff82169050919050565b5f610d1a82610cf1565b9050919050565b610d2a81610d10565b8114610d34575f80fd5b50565b5f81359050610d4581610d21565b92915050565b5f819050919050565b610d5d81610d4b565b8114610d67575f80fd5b50565b5f81359050610d7881610d54565b92915050565b5f805f60608486031215610d9557610d94610ce9565b5b5f610da286828701610d37565b9350506020610db386828701610d37565b9250506040610dc486828701610d6a565b9150509250925092565b610dd781610d10565b82525050565b5f602082019050610df05f830184610dce565b92915050565b5f8060408385031215610e0c57610e0b610ce9565b5b5f610e1985828601610d37565b9250506020610e2a85828601610d6a565b9150509250929050565b610e3d81610d4b565b82525050565b5f604082019050610e565f830185610dce565b610e636020830184610e34565b9392505050565b5f81519050919050565b5f82825260208201905092915050565b5f819050602082019050919050565b610e9c81610d4b565b82525050565b5f610eac82610cf1565b9050919050565b610ebc81610ea2565b82525050565b610ecb81610d10565b82525050565b5f81519050919050565b5f82825260208201905092915050565b5f5b83811015610f08578082015181840152602081019050610eed565b5f8484015250505050565b5f601f19601f8301169050919050565b5f610f2d82610ed1565b610f378185610edb565b9350610f47818560208601610eeb565b610f5081610f13565b840191505092915050565b5f60c083015f830151610f705f860182610e93565b506020830151610f836020860182610eb3565b506040830151610f966040860182610e93565b506060830151610fa96060860182610ec2565b5060808301518482036080860152610fc18282610f23565b91505060a0830151610fd660a0860182610ec2565b508091505092915050565b5f610fec8383610f5b565b905092915050565b5f602082019050919050565b5f61100a82610e6a565b6110148185610e74565b93508360208202850161102685610e84565b805f5b8581101561106157848403895281516110428582610fe1565b945061104d83610ff4565b925060208a01995050600181019050611029565b50829750879550505050505092915050565b5f6020820190508181035f83015261108b8184611000565b905092915050565b5f602082840312156110a8576110a7610ce9565b5b5f6110b584828501610d37565b91505092915050565b5f82825260208201905092915050565b7f4f776e61626c653a2063616c6c6572206973206e6f7420746865206f776e65725f82015250565b5f6111026020836110be565b915061110d826110ce565b602082019050919050565b5f6020820190508181035f83015261112f816110f6565b9050919050565b7f4e487b71000000000000000000000000000000000000000000000000000000005f52604160045260245ffd5b7f4e487b71000000000000000000000000000000000000000000000000000000005f52603260045260245ffd5b5f6020820190506111a35f830184610e34565b92915050565b5f80fd5b6111b682610f13565b810181811067ffffffffffffffff821117156111d5576111d4611136565b5b80604052505050565b5f6111e7610ce0565b90506111f382826111ad565b919050565b5f80fd5b5f8151905061120a81610d54565b92915050565b61121981610ea2565b8114611223575f80fd5b50565b5f8151905061123481611210565b92915050565b5f8151905061124881610d21565b92915050565b5f80fd5b5f80fd5b5f67ffffffffffffffff8211156112705761126f611136565b5b61127982610f13565b9050602081019050919050565b5f61129861129384611256565b6111de565b9050828152602081018484840111156112b4576112b3611252565b5b6112bf848285610eeb565b509392505050565b5f82601f8301126112db576112da61124e565b5b81516112eb848260208601611286565b91505092915050565b5f60c08284031215611309576113086111a9565b5b61131360c06111de565b90505f611322848285016111fc565b5f83015250602061133584828501611226565b6020830152506040611349848285016111fc565b604083015250606061135d8482850161123a565b606083015250608082015167ffffffffffffffff811115611381576113806111f8565b5b61138d848285016112c7565b60808301525060a06113a18482850161123a565b60a08301525092915050565b5f602082840312156113c2576113c1610ce9565b5b5f82015167ffffffffffffffff8111156113df576113de610ced565b5b6113eb848285016112f4565b91505092915050565b7f4e487b71000000000000000000000000000000000000000000000000000000005f52601160045260245ffd5b5f61142b82610d4b565b91507fffffffffffffffffffffffffffffffffffffffffffffffffffffffffffffffff820361145d5761145c6113f4565b5b600182019050919050565b5f60ff82169050919050565b5f61147e82611468565b915060ff8203611491576114906113f4565b5b600182019050919050565b7f4974656d20796f75207769736820746f2072656d6f7665206d757374206578695f8201527f7374000000000000000000000000000000000000000000000000000000000000602082015250565b5f6114f66022836110be565b91506115018261149c565b604082019050919050565b5f6020820190508181035f830152611523816114ea565b9050919050565b5f61153482610d4b565b915061153f83610d4b565b9250828203905081811115611557576115566113f4565b5b92915050565b5f61156782611468565b915061157283611468565b9250828201905060ff81111561158b5761158a6113f4565b5b92915050565b7f4e487b71000000000000000000000000000000000000000000000000000000005f52603160045260245ffd5b7f4f776e61626c653a206e6577206f776e657220697320746865207a65726f20615f8201527f6464726573730000000000000000000000000000000000000000000000000000602082015250565b5f6116186026836110be565b9150611623826115be565b604082019050919050565b5f6020820190508181035f8301526116458161160c565b905091905056fea2646970667358221220ca93ad687e7f2d836182cf3563a3f806a3acd2b297beb3657206de7d6870365b64736f6c63430008150033",
  "immutableReferences": {},
  "source": "// SPDX-License-Identifier: MIT \r\npragma solidity ^0.8.4;\r\nimport \"./MusicNFTArtist.sol\";\r\nimport \"@openzeppelin/contracts/access/Ownable.sol\";\r\n\r\ncontract MusicNFTUser is Ownable{\r\n     struct TokenInfo{\r\n        address artistContract;\r\n        uint256 tokenId;\r\n     }\r\n     mapping(address=>TokenInfo[]) public myItems;\r\n\r\n     function addItem(address user,address _artist,uint256 _tokenId) external onlyOwner{\r\n        myItems[user].push(TokenInfo(_artist,_tokenId));\r\n     }\r\n    function removeItem(address user,address _artist, uint256 _tokenId) external onlyOwner{\r\n        uint8 index;\r\n        bool found=false;\r\n        for(uint8 i=0;i<myItems[user].length;i++){\r\n            if(myItems[user][i].tokenId==_tokenId && myItems[user][i].artistContract==_artist)\r\n            {\r\n                index=i;\r\n                found=true;\r\n            }\r\n        }\r\n        require(found==true,\"Item you wish to remove must exist\");\r\n        for(uint8 j=index;j<myItems[user].length-1;j++){\r\n            myItems[user][j]= myItems[user][j+1];\r\n        }\r\n        myItems[user].pop();\r\n    }\r\n    function getMyItems() external view returns (MusicNFTArtist.MarketItem[] memory){\r\n        MusicNFTArtist.MarketItem[] memory items=new MusicNFTArtist.MarketItem[](myItems[msg.sender].length);\r\n        for(uint i=0;i<myItems[msg.sender].length;i++){\r\n            items[i]= MusicNFTArtist(myItems[msg.sender][i].artistContract).getToken(myItems[msg.sender][i].tokenId);\r\n        }\r\n        return items;\r\n\r\n    }\r\n\r\n    \r\n\r\n}",
  "sourcePath": "C:\\Users\\user\\Desktop\\blockchain\\music-nft-dapp\\etherium\\contracts\\MusicNFTUser.sol",
  "compiler": {
    "name": "solc",
    "version": "0.8.21+commit.d9974bed.Emscripten.clang"
  },
  "schemaVersion": "3.4.16",
  "updatedAt": "2023-09-14T14:01:19.380Z",
  "devdoc": {
    "kind": "dev",
    "methods": {
      "owner()": {
        "details": "Returns the address of the current owner."
      },
      "renounceOwnership()": {
        "details": "Leaves the contract without owner. It will not be possible to call `onlyOwner` functions anymore. Can only be called by the current owner. NOTE: Renouncing ownership will leave the contract without an owner, thereby removing any functionality that is only available to the owner."
      },
      "transferOwnership(address)": {
        "details": "Transfers ownership of the contract to a new account (`newOwner`). Can only be called by the current owner."
      }
    },
    "version": 1
  },
  "userdoc": {
    "kind": "user",
    "methods": {},
    "version": 1
  }
}