{
  "contractName": "MusicNFTArtist",
  "abi": [
    {
      "inputs": [
        {
          "internalType": "uint256",
          "name": "_royaltyFee",
          "type": "uint256"
        },
        {
          "internalType": "address",
          "name": "_artist",
          "type": "address"
        },
        {
          "internalType": "string",
          "name": "_artistURI",
          "type": "string"
        }
      ],
      "stateMutability": "nonpayable",
      "type": "constructor"
    },
    {
      "anonymous": false,
      "inputs": [
        {
          "indexed": true,
          "internalType": "address",
          "name": "owner",
          "type": "address"
        },
        {
          "indexed": true,
          "internalType": "address",
          "name": "approved",
          "type": "address"
        },
        {
          "indexed": true,
          "internalType": "uint256",
          "name": "tokenId",
          "type": "uint256"
        }
      ],
      "name": "Approval",
      "type": "event"
    },
    {
      "anonymous": false,
      "inputs": [
        {
          "indexed": true,
          "internalType": "address",
          "name": "owner",
          "type": "address"
        },
        {
          "indexed": true,
          "internalType": "address",
          "name": "operator",
          "type": "address"
        },
        {
          "indexed": false,
          "internalType": "bool",
          "name": "approved",
          "type": "bool"
        }
      ],
      "name": "ApprovalForAll",
      "type": "event"
    },
    {
      "anonymous": false,
      "inputs": [
        {
          "indexed": true,
          "internalType": "address",
          "name": "previousOwner",
          "type": "address"
        },
        {
          "indexed": true,
          "internalType": "address",
          "name": "newOwner",
          "type": "address"
        }
      ],
      "name": "OwnershipTransferred",
      "type": "event"
    },
    {
      "anonymous": false,
      "inputs": [
        {
          "indexed": true,
          "internalType": "address",
          "name": "from",
          "type": "address"
        },
        {
          "indexed": true,
          "internalType": "address",
          "name": "to",
          "type": "address"
        },
        {
          "indexed": true,
          "internalType": "uint256",
          "name": "tokenId",
          "type": "uint256"
        }
      ],
      "name": "Transfer",
      "type": "event"
    },
    {
      "inputs": [
        {
          "internalType": "address",
          "name": "to",
          "type": "address"
        },
        {
          "internalType": "uint256",
          "name": "tokenId",
          "type": "uint256"
        }
      ],
      "name": "approve",
      "outputs": [],
      "stateMutability": "nonpayable",
      "type": "function"
    },
    {
      "inputs": [],
      "name": "artist",
      "outputs": [
        {
          "internalType": "address",
          "name": "",
          "type": "address"
        }
      ],
      "stateMutability": "view",
      "type": "function"
    },
    {
      "inputs": [],
      "name": "artistURI",
      "outputs": [
        {
          "internalType": "string",
          "name": "",
          "type": "string"
        }
      ],
      "stateMutability": "view",
      "type": "function"
    },
    {
      "inputs": [
        {
          "internalType": "address",
          "name": "owner",
          "type": "address"
        }
      ],
      "name": "balanceOf",
      "outputs": [
        {
          "internalType": "uint256",
          "name": "",
          "type": "uint256"
        }
      ],
      "stateMutability": "view",
      "type": "function"
    },
    {
      "inputs": [
        {
          "internalType": "uint256",
          "name": "tokenId",
          "type": "uint256"
        }
      ],
      "name": "getApproved",
      "outputs": [
        {
          "internalType": "address",
          "name": "",
          "type": "address"
        }
      ],
      "stateMutability": "view",
      "type": "function"
    },
    {
      "inputs": [
        {
          "internalType": "address",
          "name": "owner",
          "type": "address"
        },
        {
          "internalType": "address",
          "name": "operator",
          "type": "address"
        }
      ],
      "name": "isApprovedForAll",
      "outputs": [
        {
          "internalType": "bool",
          "name": "",
          "type": "bool"
        }
      ],
      "stateMutability": "view",
      "type": "function"
    },
    {
      "inputs": [],
      "name": "name",
      "outputs": [
        {
          "internalType": "string",
          "name": "",
          "type": "string"
        }
      ],
      "stateMutability": "view",
      "type": "function"
    },
    {
      "inputs": [],
      "name": "owner",
      "outputs": [
        {
          "internalType": "address",
          "name": "",
          "type": "address"
        }
      ],
      "stateMutability": "view",
      "type": "function"
    },
    {
      "inputs": [
        {
          "internalType": "uint256",
          "name": "tokenId",
          "type": "uint256"
        }
      ],
      "name": "ownerOf",
      "outputs": [
        {
          "internalType": "address",
          "name": "",
          "type": "address"
        }
      ],
      "stateMutability": "view",
      "type": "function"
    },
    {
      "inputs": [],
      "name": "renounceOwnership",
      "outputs": [],
      "stateMutability": "nonpayable",
      "type": "function"
    },
    {
      "inputs": [],
      "name": "royaltyFee",
      "outputs": [
        {
          "internalType": "uint256",
          "name": "",
          "type": "uint256"
        }
      ],
      "stateMutability": "view",
      "type": "function"
    },
    {
      "inputs": [
        {
          "internalType": "address",
          "name": "from",
          "type": "address"
        },
        {
          "internalType": "address",
          "name": "to",
          "type": "address"
        },
        {
          "internalType": "uint256",
          "name": "tokenId",
          "type": "uint256"
        }
      ],
      "name": "safeTransferFrom",
      "outputs": [],
      "stateMutability": "nonpayable",
      "type": "function"
    },
    {
      "inputs": [
        {
          "internalType": "address",
          "name": "from",
          "type": "address"
        },
        {
          "internalType": "address",
          "name": "to",
          "type": "address"
        },
        {
          "internalType": "uint256",
          "name": "tokenId",
          "type": "uint256"
        },
        {
          "internalType": "bytes",
          "name": "_data",
          "type": "bytes"
        }
      ],
      "name": "safeTransferFrom",
      "outputs": [],
      "stateMutability": "nonpayable",
      "type": "function"
    },
    {
      "inputs": [
        {
          "internalType": "address",
          "name": "operator",
          "type": "address"
        },
        {
          "internalType": "bool",
          "name": "approved",
          "type": "bool"
        }
      ],
      "name": "setApprovalForAll",
      "outputs": [],
      "stateMutability": "nonpayable",
      "type": "function"
    },
    {
      "inputs": [
        {
          "internalType": "bytes4",
          "name": "interfaceId",
          "type": "bytes4"
        }
      ],
      "name": "supportsInterface",
      "outputs": [
        {
          "internalType": "bool",
          "name": "",
          "type": "bool"
        }
      ],
      "stateMutability": "view",
      "type": "function"
    },
    {
      "inputs": [],
      "name": "symbol",
      "outputs": [
        {
          "internalType": "string",
          "name": "",
          "type": "string"
        }
      ],
      "stateMutability": "view",
      "type": "function"
    },
    {
      "inputs": [
        {
          "internalType": "uint256",
          "name": "tokenId",
          "type": "uint256"
        }
      ],
      "name": "tokenURI",
      "outputs": [
        {
          "internalType": "string",
          "name": "",
          "type": "string"
        }
      ],
      "stateMutability": "view",
      "type": "function"
    },
    {
      "inputs": [
        {
          "internalType": "address",
          "name": "from",
          "type": "address"
        },
        {
          "internalType": "address",
          "name": "to",
          "type": "address"
        },
        {
          "internalType": "uint256",
          "name": "tokenId",
          "type": "uint256"
        }
      ],
      "name": "transferFrom",
      "outputs": [],
      "stateMutability": "nonpayable",
      "type": "function"
    },
    {
      "inputs": [
        {
          "internalType": "address",
          "name": "newOwner",
          "type": "address"
        }
      ],
      "name": "transferOwnership",
      "outputs": [],
      "stateMutability": "nonpayable",
      "type": "function"
    },
    {
      "inputs": [
        {
          "internalType": "uint256",
          "name": "price",
          "type": "uint256"
        },
        {
          "internalType": "string",
          "name": "_tokenURI",
          "type": "string"
        }
      ],
      "name": "mintToken",
      "outputs": [],
      "stateMutability": "payable",
      "type": "function"
    },
    {
      "inputs": [
        {
          "internalType": "uint256",
          "name": "_tokenId",
          "type": "uint256"
        },
        {
          "internalType": "address",
          "name": "buyer",
          "type": "address"
        }
      ],
      "name": "buyToken",
      "outputs": [],
      "stateMutability": "payable",
      "type": "function"
    },
    {
      "inputs": [
        {
          "internalType": "uint256",
          "name": "_tokenId",
          "type": "uint256"
        },
        {
          "internalType": "uint256",
          "name": "_price",
          "type": "uint256"
        },
        {
          "internalType": "address",
          "name": "seller",
          "type": "address"
        }
      ],
      "name": "resellToken",
      "outputs": [],
      "stateMutability": "payable",
      "type": "function"
    },
    {
      "inputs": [],
      "name": "getAllUnsoldTokens",
      "outputs": [
        {
          "components": [
            {
              "internalType": "uint256",
              "name": "tokenId",
              "type": "uint256"
            },
            {
              "internalType": "address payable",
              "name": "seller",
              "type": "address"
            },
            {
              "internalType": "uint256",
              "name": "price",
              "type": "uint256"
            },
            {
              "internalType": "address",
              "name": "artist",
              "type": "address"
            },
            {
              "internalType": "string",
              "name": "tokenURI",
              "type": "string"
            },
            {
              "internalType": "address",
              "name": "owner",
              "type": "address"
            }
          ],
          "internalType": "struct MusicNFTArtist.MarketItem[]",
          "name": "",
          "type": "tuple[]"
        }
      ],
      "stateMutability": "view",
      "type": "function"
    },
    {
      "inputs": [],
      "name": "getMyTokens",
      "outputs": [
        {
          "components": [
            {
              "internalType": "uint256",
              "name": "tokenId",
              "type": "uint256"
            },
            {
              "internalType": "address payable",
              "name": "seller",
              "type": "address"
            },
            {
              "internalType": "uint256",
              "name": "price",
              "type": "uint256"
            },
            {
              "internalType": "address",
              "name": "artist",
              "type": "address"
            },
            {
              "internalType": "string",
              "name": "tokenURI",
              "type": "string"
            },
            {
              "internalType": "address",
              "name": "owner",
              "type": "address"
            }
          ],
          "internalType": "struct MusicNFTArtist.MarketItem[]",
          "name": "",
          "type": "tuple[]"
        }
      ],
      "stateMutability": "view",
      "type": "function"
    },
    {
      "inputs": [
        {
          "internalType": "uint256",
          "name": "tokenId",
          "type": "uint256"
        }
      ],
      "name": "getToken",
      "outputs": [
        {
          "components": [
            {
              "internalType": "uint256",
              "name": "tokenId",
              "type": "uint256"
            },
            {
              "internalType": "address payable",
              "name": "seller",
              "type": "address"
            },
            {
              "internalType": "uint256",
              "name": "price",
              "type": "uint256"
            },
            {
              "internalType": "address",
              "name": "artist",
              "type": "address"
            },
            {
              "internalType": "string",
              "name": "tokenURI",
              "type": "string"
            },
            {
              "internalType": "address",
              "name": "owner",
              "type": "address"
            }
          ],
          "internalType": "struct MusicNFTArtist.MarketItem",
          "name": "",
          "type": "tuple"
        }
      ],
      "stateMutability": "view",
      "type": "function"
    },
    {
      "inputs": [
        {
          "internalType": "uint256",
          "name": "_tokenId",
          "type": "uint256"
        }
      ],
      "name": "getSeller",
      "outputs": [
        {
          "internalType": "address",
          "name": "",
          "type": "address"
        }
      ],
      "stateMutability": "view",
      "type": "function"
    }
  ],
  "bytecode": "0x608060405234801562000010575f80fd5b5060405162004df038038062004df0833981810160405281019062000036919062000431565b6040518060400160405280600681526020017f44417070466900000000000000000000000000000000000000000000000000008152506040518060400160405280600481526020017f4441505000000000000000000000000000000000000000000000000000000000815250815f9081620000b29190620006d7565b508060019081620000c49190620006d7565b505050620000e7620000db6200014960201b60201c565b6200015060201b60201c565b826008819055508160075f6101000a81548173ffffffffffffffffffffffffffffffffffffffff021916908373ffffffffffffffffffffffffffffffffffffffff16021790555080600990816200013f9190620006d7565b50505050620007bb565b5f33905090565b5f60065f9054906101000a900473ffffffffffffffffffffffffffffffffffffffff1690508160065f6101000a81548173ffffffffffffffffffffffffffffffffffffffff021916908373ffffffffffffffffffffffffffffffffffffffff1602179055508173ffffffffffffffffffffffffffffffffffffffff168173ffffffffffffffffffffffffffffffffffffffff167f8be0079c531659141344cd1fd0a4f28419497f9722a3daafe3b4186f6b6457e060405160405180910390a35050565b5f604051905090565b5f80fd5b5f80fd5b5f819050919050565b620002388162000224565b811462000243575f80fd5b50565b5f8151905062000256816200022d565b92915050565b5f73ffffffffffffffffffffffffffffffffffffffff82169050919050565b5f62000287826200025c565b9050919050565b62000299816200027b565b8114620002a4575f80fd5b50565b5f81519050620002b7816200028e565b92915050565b5f80fd5b5f80fd5b5f601f19601f8301169050919050565b7f4e487b71000000000000000000000000000000000000000000000000000000005f52604160045260245ffd5b6200030d82620002c5565b810181811067ffffffffffffffff821117156200032f576200032e620002d5565b5b80604052505050565b5f6200034362000213565b905062000351828262000302565b919050565b5f67ffffffffffffffff821115620003735762000372620002d5565b5b6200037e82620002c5565b9050602081019050919050565b5f5b83811015620003aa5780820151818401526020810190506200038d565b5f8484015250505050565b5f620003cb620003c58462000356565b62000338565b905082815260208101848484011115620003ea57620003e9620002c1565b5b620003f78482856200038b565b509392505050565b5f82601f830112620004165762000415620002bd565b5b815162000428848260208601620003b5565b91505092915050565b5f805f606084860312156200044b576200044a6200021c565b5b5f6200045a8682870162000246565b93505060206200046d86828701620002a7565b925050604084015167ffffffffffffffff81111562000491576200049062000220565b5b6200049f86828701620003ff565b9150509250925092565b5f81519050919050565b7f4e487b71000000000000000000000000000000000000000000000000000000005f52602260045260245ffd5b5f6002820490506001821680620004f857607f821691505b6020821081036200050e576200050d620004b3565b5b50919050565b5f819050815f5260205f209050919050565b5f6020601f8301049050919050565b5f82821b905092915050565b5f60088302620005727fffffffffffffffffffffffffffffffffffffffffffffffffffffffffffffffff8262000535565b6200057e868362000535565b95508019841693508086168417925050509392505050565b5f819050919050565b5f620005bf620005b9620005b38462000224565b62000596565b62000224565b9050919050565b5f819050919050565b620005da836200059f565b620005f2620005e982620005c6565b84845462000541565b825550505050565b5f90565b62000608620005fa565b62000615818484620005cf565b505050565b5b818110156200063c57620006305f82620005fe565b6001810190506200061b565b5050565b601f8211156200068b57620006558162000514565b620006608462000526565b8101602085101562000670578190505b620006886200067f8562000526565b8301826200061a565b50505b505050565b5f82821c905092915050565b5f620006ad5f198460080262000690565b1980831691505092915050565b5f620006c783836200069c565b9150826002028217905092915050565b620006e282620004a9565b67ffffffffffffffff811115620006fe57620006fd620002d5565b5b6200070a8254620004e0565b6200071782828562000640565b5f60209050601f8311600181146200074d575f841562000738578287015190505b620007448582620006ba565b865550620007b3565b601f1984166200075d8662000514565b5f5b8281101562000786578489015182556001820191506020850194506020810190506200075f565b86831015620007a65784890151620007a2601f8916826200069c565b8355505b6001600288020188555050505b505050505050565b61462780620007c95f395ff3fe608060405260043610610180575f3560e01c8063767dd076116100d0578063b8997a9711610089578063dd10a2b811610063578063dd10a2b814610552578063e4b50cb81461056e578063e985e9c5146105aa578063f2fde38b146105e657610180565b8063b8997a97146104b0578063c87b56dd146104da578063d6a9de511461051657610180565b8063767dd076146103c65780638da5cb5b146103f05780639134709e1461041a57806395d89b4114610436578063a22cb46514610460578063b88d4fde1461048857610180565b806343bc16121161013d578063694d05a811610117578063694d05a81461032e57806370a0823114610358578063715018a614610394578063752312a9146103aa57610180565b806343bc16121461029e5780635b3b136a146102c85780636352211e146102f257610180565b806301ffc9a71461018457806306fdde03146101c0578063081812fc146101ea578063095ea7b31461022657806323b872dd1461024e57806342842e0e14610276575b5f80fd5b34801561018f575f80fd5b506101aa60048036038101906101a59190612c76565b61060e565b6040516101b79190612cbb565b60405180910390f35b3480156101cb575f80fd5b506101d46106ef565b6040516101e19190612d5e565b60405180910390f35b3480156101f5575f80fd5b50610210600480360381019061020b9190612db1565b61077e565b60405161021d9190612e1b565b60405180910390f35b348015610231575f80fd5b5061024c60048036038101906102479190612e5e565b6107ff565b005b348015610259575f80fd5b50610274600480360381019061026f9190612e9c565b610915565b005b348015610281575f80fd5b5061029c60048036038101906102979190612e9c565b610975565b005b3480156102a9575f80fd5b506102b2610994565b6040516102bf9190612e1b565b60405180910390f35b3480156102d3575f80fd5b506102dc6109b9565b6040516102e991906130b3565b60405180910390f35b3480156102fd575f80fd5b5061031860048036038101906103139190612db1565b610bb7565b6040516103259190612e1b565b60405180910390f35b348015610339575f80fd5b50610342610c63565b60405161034f9190612d5e565b60405180910390f35b348015610363575f80fd5b5061037e600480360381019061037991906130d3565b610cef565b60405161038b919061310d565b60405180910390f35b34801561039f575f80fd5b506103a8610da3565b005b6103c460048036038101906103bf9190613252565b610e2a565b005b3480156103d1575f80fd5b506103da6110d8565b6040516103e791906130b3565b60405180910390f35b3480156103fb575f80fd5b506104046113dc565b6040516104119190612e1b565b60405180910390f35b610434600480360381019061042f91906132ac565b611404565b005b348015610441575f80fd5b5061044a61175d565b6040516104579190612d5e565b60405180910390f35b34801561046b575f80fd5b5061048660048036038101906104819190613314565b6117ed565b005b348015610493575f80fd5b506104ae60048036038101906104a991906133f0565b611803565b005b3480156104bb575f80fd5b506104c4611865565b6040516104d1919061310d565b60405180910390f35b3480156104e5575f80fd5b5061050060048036038101906104fb9190612db1565b61186b565b60405161050d9190612d5e565b60405180910390f35b348015610521575f80fd5b5061053c60048036038101906105379190612db1565b61190f565b6040516105499190612e1b565b60405180910390f35b61056c60048036038101906105679190613470565b61195a565b005b348015610579575f80fd5b50610594600480360381019061058f9190612db1565b611c06565b6040516105a19190613546565b60405180910390f35b3480156105b5575f80fd5b506105d060048036038101906105cb9190613566565b611de2565b6040516105dd9190612cbb565b60405180910390f35b3480156105f1575f80fd5b5061060c600480360381019061060791906130d3565b611e70565b005b5f7f80ac58cd000000000000000000000000000000000000000000000000000000007bffffffffffffffffffffffffffffffffffffffffffffffffffffffff1916827bffffffffffffffffffffffffffffffffffffffffffffffffffffffff191614806106d857507f5b5e139f000000000000000000000000000000000000000000000000000000007bffffffffffffffffffffffffffffffffffffffffffffffffffffffff1916827bffffffffffffffffffffffffffffffffffffffffffffffffffffffff1916145b806106e857506106e782611f66565b5b9050919050565b60605f80546106fd906135d1565b80601f0160208091040260200160405190810160405280929190818152602001828054610729906135d1565b80156107745780601f1061074b57610100808354040283529160200191610774565b820191905f5260205f20905b81548152906001019060200180831161075757829003601f168201915b5050505050905090565b5f61078882611fcf565b6107c7576040517f08c379a00000000000000000000000000000000000000000000000000000000081526004016107be90613671565b60405180910390fd5b60045f8381526020019081526020015f205f9054906101000a900473ffffffffffffffffffffffffffffffffffffffff169050919050565b5f61080982610bb7565b90508073ffffffffffffffffffffffffffffffffffffffff168373ffffffffffffffffffffffffffffffffffffffff1603610879576040517f08c379a0000000000000000000000000000000000000000000000000000000008152600401610870906136ff565b60405180910390fd5b8073ffffffffffffffffffffffffffffffffffffffff16610898612037565b73ffffffffffffffffffffffffffffffffffffffff1614806108c757506108c6816108c1612037565b611de2565b5b610906576040517f08c379a00000000000000000000000000000000000000000000000000000000081526004016108fd9061378d565b60405180910390fd5b610910838361203e565b505050565b610926610920612037565b826120f4565b610965576040517f08c379a000000000000000000000000000000000000000000000000000000000815260040161095c9061381b565b60405180910390fd5b6109708383836121d0565b505050565b61098f83838360405180602001604052805f815250611803565b505050565b60075f9054906101000a900473ffffffffffffffffffffffffffffffffffffffff1681565b6060600a805480602002602001604051908101604052809291908181526020015f905b82821015610bae578382905f5260205f2090600602016040518060c00160405290815f8201548152602001600182015f9054906101000a900473ffffffffffffffffffffffffffffffffffffffff1673ffffffffffffffffffffffffffffffffffffffff1673ffffffffffffffffffffffffffffffffffffffff16815260200160028201548152602001600382015f9054906101000a900473ffffffffffffffffffffffffffffffffffffffff1673ffffffffffffffffffffffffffffffffffffffff1673ffffffffffffffffffffffffffffffffffffffff168152602001600482018054610aca906135d1565b80601f0160208091040260200160405190810160405280929190818152602001828054610af6906135d1565b8015610b415780601f10610b1857610100808354040283529160200191610b41565b820191905f5260205f20905b815481529060010190602001808311610b2457829003601f168201915b50505050508152602001600582015f9054906101000a900473ffffffffffffffffffffffffffffffffffffffff1673ffffffffffffffffffffffffffffffffffffffff1673ffffffffffffffffffffffffffffffffffffffff1681525050815260200190600101906109dc565b50505050905090565b5f8060025f8481526020019081526020015f205f9054906101000a900473ffffffffffffffffffffffffffffffffffffffff1690505f73ffffffffffffffffffffffffffffffffffffffff168173ffffffffffffffffffffffffffffffffffffffff1603610c5a576040517f08c379a0000000000000000000000000000000000000000000000000000000008152600401610c51906138a9565b60405180910390fd5b80915050919050565b60098054610c70906135d1565b80601f0160208091040260200160405190810160405280929190818152602001828054610c9c906135d1565b8015610ce75780601f10610cbe57610100808354040283529160200191610ce7565b820191905f5260205f20905b815481529060010190602001808311610cca57829003601f168201915b505050505081565b5f8073ffffffffffffffffffffffffffffffffffffffff168273ffffffffffffffffffffffffffffffffffffffff1603610d5e576040517f08c379a0000000000000000000000000000000000000000000000000000000008152600401610d5590613937565b60405180910390fd5b60035f8373ffffffffffffffffffffffffffffffffffffffff1673ffffffffffffffffffffffffffffffffffffffff1681526020019081526020015f20549050919050565b610dab612037565b73ffffffffffffffffffffffffffffffffffffffff16610dc96113dc565b73ffffffffffffffffffffffffffffffffffffffff1614610e1f576040517f08c379a0000000000000000000000000000000000000000000000000000000008152600401610e169061399f565b60405180910390fd5b610e285f61242b565b565b610e32612037565b73ffffffffffffffffffffffffffffffffffffffff16610e506113dc565b73ffffffffffffffffffffffffffffffffffffffff1614610ea6576040517f08c379a0000000000000000000000000000000000000000000000000000000008152600401610e9d9061399f565b60405180910390fd5b600854341015610eeb576040517f08c379a0000000000000000000000000000000000000000000000000000000008152600401610ee290613a07565b60405180910390fd5b5f600a805490509050610efe30826124ee565b600a6040518060c0016040528083815260200160075f9054906101000a900473ffffffffffffffffffffffffffffffffffffffff1673ffffffffffffffffffffffffffffffffffffffff16815260200185815260200160075f9054906101000a900473ffffffffffffffffffffffffffffffffffffffff1673ffffffffffffffffffffffffffffffffffffffff1681526020018481526020015f73ffffffffffffffffffffffffffffffffffffffff16815250908060018154018082558091505060019003905f5260205f2090600602015f909190919091505f820151815f01556020820151816001015f6101000a81548173ffffffffffffffffffffffffffffffffffffffff021916908373ffffffffffffffffffffffffffffffffffffffff160217905550604082015181600201556060820151816003015f6101000a81548173ffffffffffffffffffffffffffffffffffffffff021916908373ffffffffffffffffffffffffffffffffffffffff160217905550608082015181600401908161108a9190613bc2565b5060a0820151816005015f6101000a81548173ffffffffffffffffffffffffffffffffffffffff021916908373ffffffffffffffffffffffffffffffffffffffff1602179055505050505050565b60605f6110e430610cef565b90505f8167ffffffffffffffff8111156111015761110061312e565b5b60405190808252806020026020018201604052801561113a57816020015b611127612b9d565b81526020019060019003908161111f5790505b5090505f805f90505b600a805490508110156113d2575f73ffffffffffffffffffffffffffffffffffffffff16600a828154811061117b5761117a613c91565b5b905f5260205f2090600602016001015f9054906101000a900473ffffffffffffffffffffffffffffffffffffffff1673ffffffffffffffffffffffffffffffffffffffff16146113bf57600a81815481106111d9576111d8613c91565b5b905f5260205f2090600602016040518060c00160405290815f8201548152602001600182015f9054906101000a900473ffffffffffffffffffffffffffffffffffffffff1673ffffffffffffffffffffffffffffffffffffffff1673ffffffffffffffffffffffffffffffffffffffff16815260200160028201548152602001600382015f9054906101000a900473ffffffffffffffffffffffffffffffffffffffff1673ffffffffffffffffffffffffffffffffffffffff1673ffffffffffffffffffffffffffffffffffffffff1681526020016004820180546112bd906135d1565b80601f01602080910402602001604051908101604052809291908181526020018280546112e9906135d1565b80156113345780601f1061130b57610100808354040283529160200191611334565b820191905f5260205f20905b81548152906001019060200180831161131757829003601f168201915b50505050508152602001600582015f9054906101000a900473ffffffffffffffffffffffffffffffffffffffff1673ffffffffffffffffffffffffffffffffffffffff1673ffffffffffffffffffffffffffffffffffffffff16815250508383815181106113a5576113a4613c91565b5b602002602001018190525081806113bb90613ceb565b9250505b80806113ca90613ceb565b915050611143565b5081935050505090565b5f60065f9054906101000a900473ffffffffffffffffffffffffffffffffffffffff16905090565b61140c612037565b73ffffffffffffffffffffffffffffffffffffffff1661142a6113dc565b73ffffffffffffffffffffffffffffffffffffffff1614611480576040517f08c379a00000000000000000000000000000000000000000000000000000000081526004016114779061399f565b60405180910390fd5b5f600a838154811061149557611494613c91565b5b905f5260205f2090600602016002015490505f600a84815481106114bc576114bb613c91565b5b905f5260205f2090600602016001015f9054906101000a900473ffffffffffffffffffffffffffffffffffffffff16905081341461152f576040517f08c379a000000000000000000000000000000000000000000000000000000000815260040161152690613d7c565b60405180910390fd5b5f73ffffffffffffffffffffffffffffffffffffffff16600a858154811061155a57611559613c91565b5b905f5260205f2090600602016005015f9054906101000a900473ffffffffffffffffffffffffffffffffffffffff1673ffffffffffffffffffffffffffffffffffffffff16146115df576040517f08c379a00000000000000000000000000000000000000000000000000000000081526004016115d690613de4565b60405180910390fd5b82600a85815481106115f4576115f3613c91565b5b905f5260205f2090600602016005015f6101000a81548173ffffffffffffffffffffffffffffffffffffffff021916908373ffffffffffffffffffffffffffffffffffffffff1602179055505f600a858154811061165557611654613c91565b5b905f5260205f2090600602016001015f6101000a81548173ffffffffffffffffffffffffffffffffffffffff021916908373ffffffffffffffffffffffffffffffffffffffff1602179055506116ac3084866121d0565b60075f9054906101000a900473ffffffffffffffffffffffffffffffffffffffff1673ffffffffffffffffffffffffffffffffffffffff166108fc60085490811502906040515f60405180830381858888f19350505050158015611712573d5f803e3d5ffd5b508073ffffffffffffffffffffffffffffffffffffffff166108fc3490811502906040515f60405180830381858888f19350505050158015611756573d5f803e3d5ffd5b5050505050565b60606001805461176c906135d1565b80601f0160208091040260200160405190810160405280929190818152602001828054611798906135d1565b80156117e35780601f106117ba576101008083540402835291602001916117e3565b820191905f5260205f20905b8154815290600101906020018083116117c657829003601f168201915b5050505050905090565b6117ff6117f8612037565b83836126bd565b5050565b61181461180e612037565b836120f4565b611853576040517f08c379a000000000000000000000000000000000000000000000000000000000815260040161184a9061381b565b60405180910390fd5b61185f84848484612824565b50505050565b60085481565b606061187682611fcf565b6118b5576040517f08c379a00000000000000000000000000000000000000000000000000000000081526004016118ac90613e72565b60405180910390fd5b5f6118be612880565b90505f8151116118dc5760405180602001604052805f815250611907565b806118e684612896565b6040516020016118f7929190613eca565b6040516020818303038152906040525b915050919050565b5f600a828154811061192457611923613c91565b5b905f5260205f2090600602016001015f9054906101000a900473ffffffffffffffffffffffffffffffffffffffff169050919050565b611962612037565b73ffffffffffffffffffffffffffffffffffffffff166119806113dc565b73ffffffffffffffffffffffffffffffffffffffff16146119d6576040517f08c379a00000000000000000000000000000000000000000000000000000000081526004016119cd9061399f565b60405180910390fd5b6008543414611a1a576040517f08c379a0000000000000000000000000000000000000000000000000000000008152600401611a1190613f37565b60405180910390fd5b5f8211611a5c576040517f08c379a0000000000000000000000000000000000000000000000000000000008152600401611a5390613f9f565b60405180910390fd5b8073ffffffffffffffffffffffffffffffffffffffff16600a8481548110611a8757611a86613c91565b5b905f5260205f2090600602016005015f9054906101000a900473ffffffffffffffffffffffffffffffffffffffff1673ffffffffffffffffffffffffffffffffffffffff1614611b0c576040517f08c379a0000000000000000000000000000000000000000000000000000000008152600401611b0390614007565b60405180910390fd5b5f600a8481548110611b2157611b20613c91565b5b905f5260205f2090600602016005015f6101000a81548173ffffffffffffffffffffffffffffffffffffffff021916908373ffffffffffffffffffffffffffffffffffffffff16021790555081600a8481548110611b8257611b81613c91565b5b905f5260205f2090600602016002018190555080600a8481548110611baa57611ba9613c91565b5b905f5260205f2090600602016001015f6101000a81548173ffffffffffffffffffffffffffffffffffffffff021916908373ffffffffffffffffffffffffffffffffffffffff160217905550611c018130856121d0565b505050565b611c0e612b9d565b600a8281548110611c2257611c21613c91565b5b905f5260205f2090600602016040518060c00160405290815f8201548152602001600182015f9054906101000a900473ffffffffffffffffffffffffffffffffffffffff1673ffffffffffffffffffffffffffffffffffffffff1673ffffffffffffffffffffffffffffffffffffffff16815260200160028201548152602001600382015f9054906101000a900473ffffffffffffffffffffffffffffffffffffffff1673ffffffffffffffffffffffffffffffffffffffff1673ffffffffffffffffffffffffffffffffffffffff168152602001600482018054611d06906135d1565b80601f0160208091040260200160405190810160405280929190818152602001828054611d32906135d1565b8015611d7d5780601f10611d5457610100808354040283529160200191611d7d565b820191905f5260205f20905b815481529060010190602001808311611d6057829003601f168201915b50505050508152602001600582015f9054906101000a900473ffffffffffffffffffffffffffffffffffffffff1673ffffffffffffffffffffffffffffffffffffffff1673ffffffffffffffffffffffffffffffffffffffff16815250509050919050565b5f60055f8473ffffffffffffffffffffffffffffffffffffffff1673ffffffffffffffffffffffffffffffffffffffff1681526020019081526020015f205f8373ffffffffffffffffffffffffffffffffffffffff1673ffffffffffffffffffffffffffffffffffffffff1681526020019081526020015f205f9054906101000a900460ff16905092915050565b611e78612037565b73ffffffffffffffffffffffffffffffffffffffff16611e966113dc565b73ffffffffffffffffffffffffffffffffffffffff1614611eec576040517f08c379a0000000000000000000000000000000000000000000000000000000008152600401611ee39061399f565b60405180910390fd5b5f73ffffffffffffffffffffffffffffffffffffffff168173ffffffffffffffffffffffffffffffffffffffff1603611f5a576040517f08c379a0000000000000000000000000000000000000000000000000000000008152600401611f5190614095565b60405180910390fd5b611f638161242b565b50565b5f7f01ffc9a7000000000000000000000000000000000000000000000000000000007bffffffffffffffffffffffffffffffffffffffffffffffffffffffff1916827bffffffffffffffffffffffffffffffffffffffffffffffffffffffff1916149050919050565b5f8073ffffffffffffffffffffffffffffffffffffffff1660025f8481526020019081526020015f205f9054906101000a900473ffffffffffffffffffffffffffffffffffffffff1673ffffffffffffffffffffffffffffffffffffffff1614159050919050565b5f33905090565b8160045f8381526020019081526020015f205f6101000a81548173ffffffffffffffffffffffffffffffffffffffff021916908373ffffffffffffffffffffffffffffffffffffffff160217905550808273ffffffffffffffffffffffffffffffffffffffff166120ae83610bb7565b73ffffffffffffffffffffffffffffffffffffffff167f8c5be1e5ebec7d5bd14f71427d1e84f3dd0314c0f7b2291e5b200ac8c7c3b92560405160405180910390a45050565b5f6120fe82611fcf565b61213d576040517f08c379a000000000000000000000000000000000000000000000000000000000815260040161213490614123565b60405180910390fd5b5f61214783610bb7565b90508073ffffffffffffffffffffffffffffffffffffffff168473ffffffffffffffffffffffffffffffffffffffff1614806121b657508373ffffffffffffffffffffffffffffffffffffffff1661219e8461077e565b73ffffffffffffffffffffffffffffffffffffffff16145b806121c757506121c68185611de2565b5b91505092915050565b8273ffffffffffffffffffffffffffffffffffffffff166121f082610bb7565b73ffffffffffffffffffffffffffffffffffffffff1614612246576040517f08c379a000000000000000000000000000000000000000000000000000000000815260040161223d906141b1565b60405180910390fd5b5f73ffffffffffffffffffffffffffffffffffffffff168273ffffffffffffffffffffffffffffffffffffffff16036122b4576040517f08c379a00000000000000000000000000000000000000000000000000000000081526004016122ab9061423f565b60405180910390fd5b6122bf8383836129ef565b6122c95f8261203e565b600160035f8573ffffffffffffffffffffffffffffffffffffffff1673ffffffffffffffffffffffffffffffffffffffff1681526020019081526020015f205f828254612316919061425d565b92505081905550600160035f8473ffffffffffffffffffffffffffffffffffffffff1673ffffffffffffffffffffffffffffffffffffffff1681526020019081526020015f205f82825461236a9190614290565b925050819055508160025f8381526020019081526020015f205f6101000a81548173ffffffffffffffffffffffffffffffffffffffff021916908373ffffffffffffffffffffffffffffffffffffffff160217905550808273ffffffffffffffffffffffffffffffffffffffff168473ffffffffffffffffffffffffffffffffffffffff167fddf252ad1be2c89b69c2b068fc378daa952ba7f163c4a11628f55a4df523b3ef60405160405180910390a46124268383836129f4565b505050565b5f60065f9054906101000a900473ffffffffffffffffffffffffffffffffffffffff1690508160065f6101000a81548173ffffffffffffffffffffffffffffffffffffffff021916908373ffffffffffffffffffffffffffffffffffffffff1602179055508173ffffffffffffffffffffffffffffffffffffffff168173ffffffffffffffffffffffffffffffffffffffff167f8be0079c531659141344cd1fd0a4f28419497f9722a3daafe3b4186f6b6457e060405160405180910390a35050565b5f73ffffffffffffffffffffffffffffffffffffffff168273ffffffffffffffffffffffffffffffffffffffff160361255c576040517f08c379a00000000000000000000000000000000000000000000000000000000081526004016125539061430d565b60405180910390fd5b61256581611fcf565b156125a5576040517f08c379a000000000000000000000000000000000000000000000000000000000815260040161259c90614375565b60405180910390fd5b6125b05f83836129ef565b600160035f8473ffffffffffffffffffffffffffffffffffffffff1673ffffffffffffffffffffffffffffffffffffffff1681526020019081526020015f205f8282546125fd9190614290565b925050819055508160025f8381526020019081526020015f205f6101000a81548173ffffffffffffffffffffffffffffffffffffffff021916908373ffffffffffffffffffffffffffffffffffffffff160217905550808273ffffffffffffffffffffffffffffffffffffffff165f73ffffffffffffffffffffffffffffffffffffffff167fddf252ad1be2c89b69c2b068fc378daa952ba7f163c4a11628f55a4df523b3ef60405160405180910390a46126b95f83836129f4565b5050565b8173ffffffffffffffffffffffffffffffffffffffff168373ffffffffffffffffffffffffffffffffffffffff160361272b576040517f08c379a0000000000000000000000000000000000000000000000000000000008152600401612722906143dd565b60405180910390fd5b8060055f8573ffffffffffffffffffffffffffffffffffffffff1673ffffffffffffffffffffffffffffffffffffffff1681526020019081526020015f205f8473ffffffffffffffffffffffffffffffffffffffff1673ffffffffffffffffffffffffffffffffffffffff1681526020019081526020015f205f6101000a81548160ff0219169083151502179055508173ffffffffffffffffffffffffffffffffffffffff168373ffffffffffffffffffffffffffffffffffffffff167f17307eab39ab6107e8899845ad3d59bd9653f200f220920489ca2b5937696c31836040516128179190612cbb565b60405180910390a3505050565b61282f8484846121d0565b61283b848484846129f9565b61287a576040517f08c379a00000000000000000000000000000000000000000000000000000000081526004016128719061446b565b60405180910390fd5b50505050565b606060405180602001604052805f815250905090565b60605f82036128dc576040518060400160405280600181526020017f300000000000000000000000000000000000000000000000000000000000000081525090506129ea565b5f8290505f5b5f821461290b5780806128f490613ceb565b915050600a8261290491906144b6565b91506128e2565b5f8167ffffffffffffffff8111156129265761292561312e565b5b6040519080825280601f01601f1916602001820160405280156129585781602001600182028036833780820191505090505b5090505b5f85146129e357600182612970919061425d565b9150600a8561297f91906144e6565b603061298b9190614290565b60f81b8183815181106129a1576129a0613c91565b5b60200101907effffffffffffffffffffffffffffffffffffffffffffffffffffffffffffff191690815f1a905350600a856129dc91906144b6565b945061295c565b8093505050505b919050565b505050565b505050565b5f612a198473ffffffffffffffffffffffffffffffffffffffff16612b7b565b15612b6e578373ffffffffffffffffffffffffffffffffffffffff1663150b7a02612a42612037565b8786866040518563ffffffff1660e01b8152600401612a649493929190614568565b6020604051808303815f875af1925050508015612a9f57506040513d601f19601f82011682018060405250810190612a9c91906145c6565b60015b612b1e573d805f8114612acd576040519150601f19603f3d011682016040523d82523d5f602084013e612ad2565b606091505b505f815103612b16576040517f08c379a0000000000000000000000000000000000000000000000000000000008152600401612b0d9061446b565b60405180910390fd5b805181602001fd5b63150b7a0260e01b7bffffffffffffffffffffffffffffffffffffffffffffffffffffffff1916817bffffffffffffffffffffffffffffffffffffffffffffffffffffffff191614915050612b73565b600190505b949350505050565b5f808273ffffffffffffffffffffffffffffffffffffffff163b119050919050565b6040518060c001604052805f81526020015f73ffffffffffffffffffffffffffffffffffffffff1681526020015f81526020015f73ffffffffffffffffffffffffffffffffffffffff168152602001606081526020015f73ffffffffffffffffffffffffffffffffffffffff1681525090565b5f604051905090565b5f80fd5b5f80fd5b5f7fffffffff0000000000000000000000000000000000000000000000000000000082169050919050565b612c5581612c21565b8114612c5f575f80fd5b50565b5f81359050612c7081612c4c565b92915050565b5f60208284031215612c8b57612c8a612c19565b5b5f612c9884828501612c62565b91505092915050565b5f8115159050919050565b612cb581612ca1565b82525050565b5f602082019050612cce5f830184612cac565b92915050565b5f81519050919050565b5f82825260208201905092915050565b5f5b83811015612d0b578082015181840152602081019050612cf0565b5f8484015250505050565b5f601f19601f8301169050919050565b5f612d3082612cd4565b612d3a8185612cde565b9350612d4a818560208601612cee565b612d5381612d16565b840191505092915050565b5f6020820190508181035f830152612d768184612d26565b905092915050565b5f819050919050565b612d9081612d7e565b8114612d9a575f80fd5b50565b5f81359050612dab81612d87565b92915050565b5f60208284031215612dc657612dc5612c19565b5b5f612dd384828501612d9d565b91505092915050565b5f73ffffffffffffffffffffffffffffffffffffffff82169050919050565b5f612e0582612ddc565b9050919050565b612e1581612dfb565b82525050565b5f602082019050612e2e5f830184612e0c565b92915050565b612e3d81612dfb565b8114612e47575f80fd5b50565b5f81359050612e5881612e34565b92915050565b5f8060408385031215612e7457612e73612c19565b5b5f612e8185828601612e4a565b9250506020612e9285828601612d9d565b9150509250929050565b5f805f60608486031215612eb357612eb2612c19565b5b5f612ec086828701612e4a565b9350506020612ed186828701612e4a565b9250506040612ee286828701612d9d565b9150509250925092565b5f81519050919050565b5f82825260208201905092915050565b5f819050602082019050919050565b612f1e81612d7e565b82525050565b5f612f2e82612ddc565b9050919050565b612f3e81612f24565b82525050565b612f4d81612dfb565b82525050565b5f82825260208201905092915050565b5f612f6d82612cd4565b612f778185612f53565b9350612f87818560208601612cee565b612f9081612d16565b840191505092915050565b5f60c083015f830151612fb05f860182612f15565b506020830151612fc36020860182612f35565b506040830151612fd66040860182612f15565b506060830151612fe96060860182612f44565b50608083015184820360808601526130018282612f63565b91505060a083015161301660a0860182612f44565b508091505092915050565b5f61302c8383612f9b565b905092915050565b5f602082019050919050565b5f61304a82612eec565b6130548185612ef6565b93508360208202850161306685612f06565b805f5b858110156130a157848403895281516130828582613021565b945061308d83613034565b925060208a01995050600181019050613069565b50829750879550505050505092915050565b5f6020820190508181035f8301526130cb8184613040565b905092915050565b5f602082840312156130e8576130e7612c19565b5b5f6130f584828501612e4a565b91505092915050565b61310781612d7e565b82525050565b5f6020820190506131205f8301846130fe565b92915050565b5f80fd5b5f80fd5b7f4e487b71000000000000000000000000000000000000000000000000000000005f52604160045260245ffd5b61316482612d16565b810181811067ffffffffffffffff821117156131835761318261312e565b5b80604052505050565b5f613195612c10565b90506131a1828261315b565b919050565b5f67ffffffffffffffff8211156131c0576131bf61312e565b5b6131c982612d16565b9050602081019050919050565b828183375f83830152505050565b5f6131f66131f1846131a6565b61318c565b9050828152602081018484840111156132125761321161312a565b5b61321d8482856131d6565b509392505050565b5f82601f83011261323957613238613126565b5b81356132498482602086016131e4565b91505092915050565b5f806040838503121561326857613267612c19565b5b5f61327585828601612d9d565b925050602083013567ffffffffffffffff81111561329657613295612c1d565b5b6132a285828601613225565b9150509250929050565b5f80604083850312156132c2576132c1612c19565b5b5f6132cf85828601612d9d565b92505060206132e085828601612e4a565b9150509250929050565b6132f381612ca1565b81146132fd575f80fd5b50565b5f8135905061330e816132ea565b92915050565b5f806040838503121561332a57613329612c19565b5b5f61333785828601612e4a565b925050602061334885828601613300565b9150509250929050565b5f67ffffffffffffffff82111561336c5761336b61312e565b5b61337582612d16565b9050602081019050919050565b5f61339461338f84613352565b61318c565b9050828152602081018484840111156133b0576133af61312a565b5b6133bb8482856131d6565b509392505050565b5f82601f8301126133d7576133d6613126565b5b81356133e7848260208601613382565b91505092915050565b5f805f806080858703121561340857613407612c19565b5b5f61341587828801612e4a565b945050602061342687828801612e4a565b935050604061343787828801612d9d565b925050606085013567ffffffffffffffff81111561345857613457612c1d565b5b613464878288016133c3565b91505092959194509250565b5f805f6060848603121561348757613486612c19565b5b5f61349486828701612d9d565b93505060206134a586828701612d9d565b92505060406134b686828701612e4a565b9150509250925092565b5f60c083015f8301516134d55f860182612f15565b5060208301516134e86020860182612f35565b5060408301516134fb6040860182612f15565b50606083015161350e6060860182612f44565b50608083015184820360808601526135268282612f63565b91505060a083015161353b60a0860182612f44565b508091505092915050565b5f6020820190508181035f83015261355e81846134c0565b905092915050565b5f806040838503121561357c5761357b612c19565b5b5f61358985828601612e4a565b925050602061359a85828601612e4a565b9150509250929050565b7f4e487b71000000000000000000000000000000000000000000000000000000005f52602260045260245ffd5b5f60028204905060018216806135e857607f821691505b6020821081036135fb576135fa6135a4565b5b50919050565b7f4552433732313a20617070726f76656420717565727920666f72206e6f6e65785f8201527f697374656e7420746f6b656e0000000000000000000000000000000000000000602082015250565b5f61365b602c83612cde565b915061366682613601565b604082019050919050565b5f6020820190508181035f8301526136888161364f565b9050919050565b7f4552433732313a20617070726f76616c20746f2063757272656e74206f776e655f8201527f7200000000000000000000000000000000000000000000000000000000000000602082015250565b5f6136e9602183612cde565b91506136f48261368f565b604082019050919050565b5f6020820190508181035f830152613716816136dd565b9050919050565b7f4552433732313a20617070726f76652063616c6c6572206973206e6f74206f775f8201527f6e6572206e6f7220617070726f76656420666f7220616c6c0000000000000000602082015250565b5f613777603883612cde565b91506137828261371d565b604082019050919050565b5f6020820190508181035f8301526137a48161376b565b9050919050565b7f4552433732313a207472616e736665722063616c6c6572206973206e6f74206f5f8201527f776e6572206e6f7220617070726f766564000000000000000000000000000000602082015250565b5f613805603183612cde565b9150613810826137ab565b604082019050919050565b5f6020820190508181035f830152613832816137f9565b9050919050565b7f4552433732313a206f776e657220717565727920666f72206e6f6e65786973745f8201527f656e7420746f6b656e0000000000000000000000000000000000000000000000602082015250565b5f613893602983612cde565b915061389e82613839565b604082019050919050565b5f6020820190508181035f8301526138c081613887565b9050919050565b7f4552433732313a2062616c616e636520717565727920666f7220746865207a655f8201527f726f206164647265737300000000000000000000000000000000000000000000602082015250565b5f613921602a83612cde565b915061392c826138c7565b604082019050919050565b5f6020820190508181035f83015261394e81613915565b9050919050565b7f4f776e61626c653a2063616c6c6572206973206e6f7420746865206f776e65725f82015250565b5f613989602083612cde565b915061399482613955565b602082019050919050565b5f6020820190508181035f8301526139b68161397d565b9050919050565b7f526f79616c747920666565206d757374206265207061696400000000000000005f82015250565b5f6139f1601883612cde565b91506139fc826139bd565b602082019050919050565b5f6020820190508181035f830152613a1e816139e5565b9050919050565b5f819050815f5260205f209050919050565b5f6020601f8301049050919050565b5f82821b905092915050565b5f60088302613a817fffffffffffffffffffffffffffffffffffffffffffffffffffffffffffffffff82613a46565b613a8b8683613a46565b95508019841693508086168417925050509392505050565b5f819050919050565b5f613ac6613ac1613abc84612d7e565b613aa3565b612d7e565b9050919050565b5f819050919050565b613adf83613aac565b613af3613aeb82613acd565b848454613a52565b825550505050565b5f90565b613b07613afb565b613b12818484613ad6565b505050565b5b81811015613b3557613b2a5f82613aff565b600181019050613b18565b5050565b601f821115613b7a57613b4b81613a25565b613b5484613a37565b81016020851015613b63578190505b613b77613b6f85613a37565b830182613b17565b50505b505050565b5f82821c905092915050565b5f613b9a5f1984600802613b7f565b1980831691505092915050565b5f613bb28383613b8b565b9150826002028217905092915050565b613bcb82612cd4565b67ffffffffffffffff811115613be457613be361312e565b5b613bee82546135d1565b613bf9828285613b39565b5f60209050601f831160018114613c2a575f8415613c18578287015190505b613c228582613ba7565b865550613c89565b601f198416613c3886613a25565b5f5b82811015613c5f57848901518255600182019150602085019450602081019050613c3a565b86831015613c7c5784890151613c78601f891682613b8b565b8355505b6001600288020188555050505b505050505050565b7f4e487b71000000000000000000000000000000000000000000000000000000005f52603260045260245ffd5b7f4e487b71000000000000000000000000000000000000000000000000000000005f52601160045260245ffd5b5f613cf582612d7e565b91507fffffffffffffffffffffffffffffffffffffffffffffffffffffffffffffffff8203613d2757613d26613cbe565b5b600182019050919050565b7f506c656173652073656e64207468652061736b696e67207072696365000000005f82015250565b5f613d66601c83612cde565b9150613d7182613d32565b602082019050919050565b5f6020820190508181035f830152613d9381613d5a565b9050919050565b7f4974656d206973206e6f7420666f722073616c650000000000000000000000005f82015250565b5f613dce601483612cde565b9150613dd982613d9a565b602082019050919050565b5f6020820190508181035f830152613dfb81613dc2565b9050919050565b7f4552433732314d657461646174613a2055524920717565727920666f72206e6f5f8201527f6e6578697374656e7420746f6b656e0000000000000000000000000000000000602082015250565b5f613e5c602f83612cde565b9150613e6782613e02565b604082019050919050565b5f6020820190508181035f830152613e8981613e50565b9050919050565b5f81905092915050565b5f613ea482612cd4565b613eae8185613e90565b9350613ebe818560208601612cee565b80840191505092915050565b5f613ed58285613e9a565b9150613ee18284613e9a565b91508190509392505050565b7f4d7573742070617920726f79616c7479000000000000000000000000000000005f82015250565b5f613f21601083612cde565b9150613f2c82613eed565b602082019050919050565b5f6020820190508181035f830152613f4e81613f15565b9050919050565b7f5072696365206d7573742062652067726561746572207468616e207a65726f005f82015250565b5f613f89601f83612cde565b9150613f9482613f55565b602082019050919050565b5f6020820190508181035f830152613fb681613f7d565b9050919050565b7f4f6e6c79206f776e65722063616e20726573656c6c20616e206974656d0000005f82015250565b5f613ff1601d83612cde565b9150613ffc82613fbd565b602082019050919050565b5f6020820190508181035f83015261401e81613fe5565b9050919050565b7f4f776e61626c653a206e6577206f776e657220697320746865207a65726f20615f8201527f6464726573730000000000000000000000000000000000000000000000000000602082015250565b5f61407f602683612cde565b915061408a82614025565b604082019050919050565b5f6020820190508181035f8301526140ac81614073565b9050919050565b7f4552433732313a206f70657261746f7220717565727920666f72206e6f6e65785f8201527f697374656e7420746f6b656e0000000000000000000000000000000000000000602082015250565b5f61410d602c83612cde565b9150614118826140b3565b604082019050919050565b5f6020820190508181035f83015261413a81614101565b9050919050565b7f4552433732313a207472616e736665722066726f6d20696e636f7272656374205f8201527f6f776e6572000000000000000000000000000000000000000000000000000000602082015250565b5f61419b602583612cde565b91506141a682614141565b604082019050919050565b5f6020820190508181035f8301526141c88161418f565b9050919050565b7f4552433732313a207472616e7366657220746f20746865207a65726f206164645f8201527f7265737300000000000000000000000000000000000000000000000000000000602082015250565b5f614229602483612cde565b9150614234826141cf565b604082019050919050565b5f6020820190508181035f8301526142568161421d565b9050919050565b5f61426782612d7e565b915061427283612d7e565b925082820390508181111561428a57614289613cbe565b5b92915050565b5f61429a82612d7e565b91506142a583612d7e565b92508282019050808211156142bd576142bc613cbe565b5b92915050565b7f4552433732313a206d696e7420746f20746865207a65726f20616464726573735f82015250565b5f6142f7602083612cde565b9150614302826142c3565b602082019050919050565b5f6020820190508181035f830152614324816142eb565b9050919050565b7f4552433732313a20746f6b656e20616c7265616479206d696e746564000000005f82015250565b5f61435f601c83612cde565b915061436a8261432b565b602082019050919050565b5f6020820190508181035f83015261438c81614353565b9050919050565b7f4552433732313a20617070726f766520746f2063616c6c6572000000000000005f82015250565b5f6143c7601983612cde565b91506143d282614393565b602082019050919050565b5f6020820190508181035f8301526143f4816143bb565b9050919050565b7f4552433732313a207472616e7366657220746f206e6f6e2045524337323152655f8201527f63656976657220696d706c656d656e7465720000000000000000000000000000602082015250565b5f614455603283612cde565b9150614460826143fb565b604082019050919050565b5f6020820190508181035f83015261448281614449565b9050919050565b7f4e487b71000000000000000000000000000000000000000000000000000000005f52601260045260245ffd5b5f6144c082612d7e565b91506144cb83612d7e565b9250826144db576144da614489565b5b828204905092915050565b5f6144f082612d7e565b91506144fb83612d7e565b92508261450b5761450a614489565b5b828206905092915050565b5f81519050919050565b5f82825260208201905092915050565b5f61453a82614516565b6145448185614520565b9350614554818560208601612cee565b61455d81612d16565b840191505092915050565b5f60808201905061457b5f830187612e0c565b6145886020830186612e0c565b61459560408301856130fe565b81810360608301526145a78184614530565b905095945050505050565b5f815190506145c081612c4c565b92915050565b5f602082840312156145db576145da612c19565b5b5f6145e8848285016145b2565b9150509291505056fea2646970667358221220acfb6785fe7489f7dcecd0eac9c8f13ef484c3e1904134fa8b42bbc3e89c408d64736f6c63430008150033",
  "immutableReferences": {},
  "source": "// SPDX-License-Identifier: MIT \r\npragma solidity ^0.8.4;\r\nimport \"@openzeppelin/contracts/access/Ownable.sol\";\r\nimport \"@openzeppelin/contracts/token/ERC721/ERC721.sol\";\r\n\r\ncontract MusicNFTArtist is ERC721(\"DAppFi\",\"DAPP\"),Ownable{\r\n   \r\n   \r\n    address public artist;\r\n    uint256 public royaltyFee;\r\n    string public artistURI;\r\n\r\n    struct MarketItem{\r\n        uint256 tokenId;\r\n        address payable seller; //in order for seller address to receive ether payment we need to mark it as payable\r\n        uint256 price;\r\n        address artist;\r\n        string tokenURI;\r\n        address owner;\r\n    }\r\n\r\n    //an array of market items\r\n    MarketItem[] marketItems;\r\n\r\n   \r\n    constructor(uint256 _royaltyFee,address _artist,string memory _artistURI){\r\n        \r\n        royaltyFee=_royaltyFee;\r\n        artist=_artist;\r\n        artistURI=_artistURI;\r\n       \r\n\r\n    }\r\n    function mintToken(uint256 price, string memory _tokenURI) external payable onlyOwner(){\r\n        require(msg.value>=royaltyFee,\"Royalty fee must be paid\");\r\n        uint256 tokenId=marketItems.length;\r\n        _mint(address(this),tokenId);\r\n         marketItems.push(MarketItem(tokenId,payable(artist),price,artist,_tokenURI,address(0)));\r\n\r\n    }\r\n\r\n    //function that lets fans purchase music NFTs\r\n    function buyToken(uint256 _tokenId,address buyer) external payable onlyOwner{\r\n        uint256 price=marketItems[_tokenId].price;\r\n        address seller=marketItems[_tokenId].seller;\r\n        require(msg.value==price,\"Please send the asking price\");\r\n        require(marketItems[_tokenId].owner==address(0),\"Item is not for sale\");\r\n        marketItems[_tokenId].owner=buyer;\r\n        marketItems[_tokenId].seller=payable(address(0));//no one is selling item anymore\r\n        _transfer(address(this), buyer, _tokenId);\r\n        payable(artist).transfer(royaltyFee);\r\n        payable(seller).transfer(msg.value);\r\n        //emit MarketItemBought(_tokenId, seller, msg.sender, price);\r\n    }\r\n    //reselling token function\r\n    function resellToken(uint256 _tokenId,uint256 _price,address seller) external payable onlyOwner{\r\n        require(msg.value==royaltyFee,\"Must pay royalty\");\r\n        require(_price>0,\"Price must be greater than zero\");\r\n        require(marketItems[_tokenId].owner==seller,\"Only owner can resell an item\");\r\n        marketItems[_tokenId].owner=address(0);\r\n        marketItems[_tokenId].price=_price;\r\n        marketItems[_tokenId].seller=payable(seller);\r\n        _transfer(seller, address(this), _tokenId);\r\n        //emit MarketItemRelisted(_tokenId, msg.sender, _price);\r\n    }\r\n    //fetching all tokens currently listed for sale\r\n    function getAllUnsoldTokens() external view returns (MarketItem[] memory){\r\n        uint256 unsoldCount=balanceOf(address(this));\r\n        MarketItem[] memory tokens=new MarketItem[](unsoldCount);\r\n        uint256 currentIndex;\r\n        for(uint256 i=0;i<marketItems.length;i++){\r\n            if(marketItems[i].seller!=address(0)){\r\n                tokens[currentIndex]=marketItems[i];\r\n                currentIndex++;\r\n            }\r\n        }\r\n        return (tokens);\r\n    }\r\n    //fetching all tokens owned by the artist\r\n     function getMyTokens() external view returns (MarketItem[] memory){\r\n       \r\n        return marketItems;\r\n    }\r\n    function getToken(uint256 tokenId) external view returns (MarketItem memory){\r\n        return marketItems[tokenId];\r\n    }\r\n\r\n    function getSeller(uint256 _tokenId) external view returns (address){\r\n       return marketItems[_tokenId].seller;\r\n    }\r\n   \r\n    \r\n}\r\n",
  "sourcePath": "C:\\Users\\user\\Desktop\\blockchain\\music-nft-dapp\\etherium\\contracts\\MusicNFTArtist.sol",
  "compiler": {
    "name": "solc",
    "version": "0.8.21+commit.d9974bed.Emscripten.clang"
  },
  "schemaVersion": "3.4.16",
  "updatedAt": "2023-09-14T14:01:19.273Z",
  "devdoc": {
    "events": {
      "Approval(address,address,uint256)": {
        "details": "Emitted when `owner` enables `approved` to manage the `tokenId` token."
      },
      "ApprovalForAll(address,address,bool)": {
        "details": "Emitted when `owner` enables or disables (`approved`) `operator` to manage all of its assets."
      },
      "Transfer(address,address,uint256)": {
        "details": "Emitted when `tokenId` token is transferred from `from` to `to`."
      }
    },
    "kind": "dev",
    "methods": {
      "approve(address,uint256)": {
        "details": "See {IERC721-approve}."
      },
      "balanceOf(address)": {
        "details": "See {IERC721-balanceOf}."
      },
      "getApproved(uint256)": {
        "details": "See {IERC721-getApproved}."
      },
      "isApprovedForAll(address,address)": {
        "details": "See {IERC721-isApprovedForAll}."
      },
      "name()": {
        "details": "See {IERC721Metadata-name}."
      },
      "owner()": {
        "details": "Returns the address of the current owner."
      },
      "ownerOf(uint256)": {
        "details": "See {IERC721-ownerOf}."
      },
      "renounceOwnership()": {
        "details": "Leaves the contract without owner. It will not be possible to call `onlyOwner` functions anymore. Can only be called by the current owner. NOTE: Renouncing ownership will leave the contract without an owner, thereby removing any functionality that is only available to the owner."
      },
      "safeTransferFrom(address,address,uint256)": {
        "details": "See {IERC721-safeTransferFrom}."
      },
      "safeTransferFrom(address,address,uint256,bytes)": {
        "details": "See {IERC721-safeTransferFrom}."
      },
      "setApprovalForAll(address,bool)": {
        "details": "See {IERC721-setApprovalForAll}."
      },
      "supportsInterface(bytes4)": {
        "details": "See {IERC165-supportsInterface}."
      },
      "symbol()": {
        "details": "See {IERC721Metadata-symbol}."
      },
      "tokenURI(uint256)": {
        "details": "See {IERC721Metadata-tokenURI}."
      },
      "transferFrom(address,address,uint256)": {
        "details": "See {IERC721-transferFrom}."
      },
      "transferOwnership(address)": {
        "details": "Transfers ownership of the contract to a new account (`newOwner`). Can only be called by the current owner."
      }
    },
    "version": 1
  },
  "userdoc": {
    "kind": "user",
    "methods": {},
    "version": 1
  }
}